:020000040000FA
:2000000000500020E9000000E1000000C9000000E5000000E5000000E5000000000000002E
:20002000000000000000000000000000E5000000E500000000000000E5000000E50000002C
:200040003D890000E5000000AD570100E5000000E17E000029840000E5000000E500000035
:20006000E5000000D5570100E5000000E5000000E5000000E5000000E5000000E500000010
:20008000E5000000E5000000E5000000E5000000E5000000E5000000E5000000E500000038
:2000A000E5000000E5000000E5000000E5000000E5000000E5000000E5000000E500000018
:2000C000E5000000A19B0000044B1A68B2F5806F03D01B689B0500D4FEE7704728ED00E03D
:2000E000FEE700BFFEE700BF08B512F005F9104A104B9A420DD2D0430F4918440B4620F063
:2001000003000430084453F8041B834242F8041BF9D10A480A494FF000028842B8BF40F8AB
:20012000042BFADB06F0CCFFFFF7CEFF08BD00BF00000020A00A00206D870100A00A00200A
:2001400060470020022007F099B900BF70B5CAB007F09AFB30B9214807F064FF07F0C4FB21
:200160004AB070BD01AA00204FF4927107F0C4FB044607F0B9FB14B3194B019A9A4223D007
:2001800018480AF0FDFE03460028E9D0164E174D012406E05C7718460AF058FF034600281A
:2001A000DED01A7FB16804FA02F20A40F2D12868A9885A77C3F81F00A3F82310EBE70C4880
:2001C00007F030FF4AB070BD029AB2F5927FD7D101A9054816F006FAD2E700BFE86B01000D
:2001E000025026CCD00A0020E43B0020246C01000C6C01002DE9F04109F0E2FB344CC0F328
:200200000A00637F00F52065002B37D1314C637F3BB92946BDE8F0412F48304A00230AF09F
:20022000DDBA2F4B02205B689847B0F1004F0746EFD0C0EB4013002600EB83035B1104F1F7
:200240001F000C21274AE67784F8206084F8216084F8226084F8236084F8246084F825608D
:2002600084F8266084F8276084F8286084F8296084F82A60676009F0FFFCCAE7184B01207A
:200280005B689847B0F1004F0746BFD0002603460C2104F11F00134AE67784F8206084F80E
:2002A000216084F8226084F8236084F8246084F8256084F8266084F8276084F8286084F83A
:2002C000296084F82A60676009F0D6FC9EE700BF30040020640400200C3D0020F50100007E
:2002E000F88201002C6C01002DE9F04107461B480E4690460AF044FE0446A0B165692846B6
:2003000016F0FEFAB04208D1384616F0F9FA39460246284616F04CFB40B120460AF096FE36
:2003200004460028EAD10020BDE8F081404616F0D9F820B101280DD16077BDE8F081084BE5
:20034000607718689B88C4F81F00A4F823300120BDE8F0814FF0FF30BDE8F081D00A0020A4
:20036000246C010010B504460EF094F810220146204616F005F918B90BF0F4FF014B1860ED
:2003800010BD00BF0C0B002038B507F07DFA90B300204FF4927107F025FB28B319491A4CDC
:2003A00000234FF49272194884E80E000AF0E8FD0125034668B15A7F18462AB11A7FA368DB
:2003C00005FA02F21343A3600AF040FE03460028F1D100204FF492710B4A07F0B7FA30B91A
:2003E0000B4807F01FFE02E00A4807F01BFEBDE8384007F079BA084807F014FEBDE8384095
:2004000007F072BA025026CCE43B0020D00A0020686C0100546C0100306C01000D2901D002
:200420000020704710B514460A460A4916F096FA08B1002010BD204616F054F8064B421F7D
:200440009A4204D8054BC001D860012010BD4FF0FF3010BD7C6C01007B510100E43B00207D
:200460002DE9F0474FF0000A8146884657465546561C0AE0BAF1000F26DB31D00AF1010AFB
:200480000237102F06F102061BD016F8014C337803EB0424A4B2002CECD0BAF1000F13DDF6
:2004A0004FF0FF3A09EB0500C5EB08012346124A09F0E2FB02372844102FC5B206F102061D
:2004C000E3D12846BDE8F087002FEBD009EB0500C5EB0801094A09F0CFFB2844C5B2E1E781
:2004E00009EB0500C5EB0801054A09F0C5FB2844C5B24FF0010AC3E7946C0100906C01006D
:200500008C6C010010B5044609480AF039FD50B1037FA34203D109E0037FA34205D00AF0F7
:2005200095FD0028F8D1002010BD10BD10BD00BFD00A002001480AF023BD00BFD00A00201C
:2005400010B5032006F090FF0D480AF019FD012420B144770AF07AFD0028FAD1094C0A480D
:20056000217800220AF0EAFB2178084800220AF0E5FBFFF709FFBDE81040032006F07EBFB3
:20058000D00A00202C3D0020C4060020840600202DE9F041048805460E461746CCB1B4F54F
:2005A000717F11D1882E00F08180634B1B78B3426DD0624B1B78B34200F097804FF47173EC
:2005C0002B800120BDE8F081002303800320BDE8F0815B4807F026FD5A485B490AF0D2FC8F
:2005E00058485A490AF0CEFC594B01219B68812098470AF0FBFA574BDFF8A88118700AF098
:20060000F5FA88F800000AF0F1FA534B2146187052480AF09FFB214651480AF09BFB2146D4
:2006200050480AF097FB21464F480AF093FB4F4821460AF08FFB4E4B4FF0FF314FF4706271
:200640009960DA60FFF782FD98F80010224620460AF054FB2046FFF7CDFD464803F070FF25
:20066000454803F06DFF454803F06AFF444B4FF00062444844491A600EF006F94348102129
:200680000AF0C2F9424810210AF0BEF98AE7414B9F428ED17B6801209847B0F5207F3BDDBD
:2006A0003D4807F0BFFCFFF74BFF87E738480AF0C9F9E8B935480AF0C5F900283FF475AFC4
:2006C00001200DF013FA88B301200DF00FFA30B10DF0E0FE8021002214230EF093F8244BDF
:2006E0002A48D9680AF090F95FE7FFF74DFE65E701200DF0FBF904460028DBD1022006F0A9
:20070000B3FE234625480821254A0AF067F8204810210AF079F9CDE70020FFF76BFD0D4BD2
:200720000020197802460AF0E9FA47E7174810210AF06AF939E700BF5C4700205A47002065
:20074000986C0100D00A00203004002064040020F8820100E03B00202C3D00204807002010
:20076000700600205C060020C406002084060020E43B0020280400205C040020A0040020FE
:200780000C0B0020040B002065030000D40A0020100B0020C4820100B06C0100E40A0020E0
:2007A00045010000083D0020082901D00020704708B50A46044916F0D1F808B1002008BDEE
:2007C000FFF7BEFE012008BDC46C01002DE9F041214C82B00023656D0E46009301931F4992
:2007E0006A460746A8470546E8B1DDF800801C4940462A4616F0DCF8E0B94FF00108384640
:20080000A36D184901AA9847054660B1019F164938462A4616F0CCF8D0B138462A461349FF
:2008200016F0C6F880B130466369A16F984702B0BDE8F08140462A460D4916F0B9F800289F
:20084000F1D14FF00208DAE7404606F017FEEEE7404606F009FEEAE750800100406D010093
:20086000688601004C6D0100C0820100486D0100B87E0100012006F00BBE00BF022006F0E8
:2008800007BE00BFF0B583B002AB4FF0FF352C4C43F8045D0F46266A19461546B047019998
:2008A0004B1C1CD0D4F8B43099421AD0D4F8043199423ED0D4F8E030994227D0D4F890106C
:2008C0006369384698471F4B1D68284616F018F829460246E36C3846984703B0F0BDD4F8ED
:2008E000B410194EE369384698470FCE2860696003CE3688AA6028616961E46CEB602E83BE
:20090000384629461922A04703B0F0BDE3693846984728460D4A40210B4B09F0ADF9284636
:2009200015F0EEFFE36C024629463846984703B0F0BDE3693846984728464021044AEBE76A
:20094000508001006C060020D06D0100FC6D0100EC6D0100F0B583B002AB4FF0FF35294CC5
:2009600043F8045D276A0D4619461646B84701994B1C1CD0D4F8B43099421AD0D4F80431DA
:20098000994235D0D4F8E030994227D0D4F890106369284698471C4B1E68304615F0B0FF2D
:2009A00031460246E36C2846984703B0F0BDD4F8B410E3692846984707F0F8F903463046AC
:2009C000124A402109F058F9304615F099FFE36C024631462846984703B0F0BDE369284688
:2009E000984707F0E3F940210346094A3046E9E7E3692846984707F0D9F940210346054AA7
:200A00003046DFE7508001006C060020106E0100246E0100146E01002DE9F0414FF0FF33EA
:200A200084B007460D461646039311F09DFA58BB11F092FA440751D44FF425683D4C03A943
:200A4000236A3846984703994B1C24D0D4F8B430994222D0D4F80431994261D0D4F8E0304F
:200A6000994254D0D4F89010636928469847324B1E68304615F044FF31460246E36C2846B5
:200A8000984704B0BDE8F08111F06EFA01281AD04FF00008D2E7D4F8B410E3692846984708
:200AA0003046264ACDF800804021254B09F0E4F8304615F025FFE36C02463146284698476B
:200AC00004B0BDE8F08111F047FA800711D411F043FA42070DD440F21E58AFE711F03CFAC1
:200AE00040F6462310F0020F40F65A2808BF9846A4E711F031FA8107CAD511F02DFA10F0E3
:200B0000040F40F2465808BF4FF0000896E7E36928469847CDF8008030464021094AC4E7B4
:200B2000E36928469847CDF8008030464021064ABBE700BF508001006C060020446E010039
:200B4000506E01007C6E0100646E0100FFF7F8BC2DE9F0414FF0FF3484B0039488461646C0
:200B60001F46FFF7CFFC314C0546002857D0236A03A94046984703994B1C1DD0D4F8B430FA
:200B800099421BD0D4F8043199422CD0D4F8E030994235D063693046D4F890109847244BFF
:200BA0001D68284615F0ACFE29460246E36C3046984704B0BDE8F081D4F8B410E36930461C
:200BC0009847384605F11F0340211A4A09F054F8384615F095FEE36C024639463046984715
:200BE00004B0BDE8F081E369304698471F3555F8133C3846009540210F4A09F03DF8E7E7D1
:200C0000E3693046984705F11F022B690092AA69384601924021094A09F02EF8D8E7636974
:200C20003046D4F888109847054BB9E7508001006C0600209C7B01002C6F0100386F01004C
:200C40008006002010B40C4613460146224600205DF8044BFFF77CBF10B40C461346014625
:200C6000224601205DF8044BFFF772BF2DE9F041364F8AB000248846BD6D0194029403943C
:200C800004940594069407940894099401AA30490646A847431E1E2B33D92E4901AA304608
:200CA000A847019815F01EFC00281EDDC001002108F028F8304601AA2749A847054688B16C
:200CC000019C264920462A4615F072FE20B320462A46234915F06CFE002831D040467B69A6
:200CE000B96F98470AB0BDE8F081304601AA1A49A84705460028E3D1002CEFD00AB0BDE839
:200D0000F0810246019902A815F06CFC204602A907F0F8FF0124C0E708F01AF80028E1D1BA
:200D2000D7F884107B69404698470E4B1C68204615F0E6FD21460246FB6C40469847D1E7A9
:200D400008F028F80AB0BDE8F08100BF50800100906F0100986F01004C6D0100C082010016
:200D6000486D0100EC050020F0B583B002AB4FF0FF35284C43F8045D276A0D461946164605
:200D8000B84701994B1C1CD0D4F8B43099421AD0D4F80431994233D0D4F8E030994226D066
:200DA000D4F890106369284698471B4B1E68304615F0A6FD31460246E36C2846984703B096
:200DC000F0BDD4F8B410E369284698473046134B134A1B68402108F04FFF304615F090FDDA
:200DE000E36C024631462846984703B0F0BDE36928469847094B30461B684021094AEAE7CD
:200E0000E36928469847054B30461B684021064AE1E700BF508001006C0600200C0B00201E
:200E20002C6C0100547001003C700100F0B593B012AB4FF0FF352C4C43F8445D276A0D4657
:200E400019461646B8470021402202A815F0A4FC0DF020FB4021024602A8FFF701FB01990F
:200E60004B1C1CD0D4F8B43099421AD0D4F80431994231D0D4F8E030994225D0D4F89010B5
:200E8000636928469847194B1E68304615F038FD31460246E36C2846984713B0F0BDD4F808
:200EA000B410E369284698473046114A02AB402108F0E2FE304615F023FDE36C0246314675
:200EC0002846984713B0F0BDE36928469847304602AB4021074AEBE7E36928469847304606
:200EE00002AB4021044AE3E7508001006C0600209C7B01007C7001006C7001002DE9F04F32
:200F000004888BB00546B4B1B72C0ED168480E4609F098FD50BB674B1B78B3421CD0B723FB
:200F20002B8001200BB0BDE8F08F0023038003200BB0BDE8F08F604807F074F85F4B5C4805
:200F40001C605C609C60DC604FF4F05109F05CFDB7232B800120E5E7594B1B789B07DED54D
:200F6000584B594A1B881268D054D8E701200CF0BDFD044600286AD00FF0A6F9002866D0AC
:200F80002346064653F8020F4C4C59689A68DB684E4F0FC456F8080FD7F800807168A4F110
:200FA000080303C3B8F1000F76D04046A4F11001102215F0E5FA002861D1454C68462368FC
:200FC000444901331A46236008F092FE82460FF07BF950B3036AD3F8904034B34FF0000B6E
:200FE0005E46DFF8FC90DFF8FC80EA440AE0BBF1000F32DB38D00BF1010B0236102E04F13C
:2010000002041CD02279637903EB022292B2002AEDD0BBF1000FC8BF4FF0FF3B1DDD5046DF
:201020002D4908F065FE8244E7E72C4B0DEB0A02186899889B794DF80A0091809371684609
:2010400015F05EFC6946024638680EF0FBFB18484FF4F05109F0D8FC61E7002EDFD0B9F81F
:2010600000302AF8013BDAE7B8F8002098F80230AAF800204FF0010B0AF8023FBDE7002279
:20108000A4F11000A8F810204BF60B010DF014FF38600028DBD090E7A4F1100042464BF62E
:2010A0000B010DF009FF38600028D0D085E700BF380B00205E470020D8700100200B0020D8
:2010C000D0400020383D0020DC400020300B0020340B0020EC700100F4700100FC70010026
:2010E000906C01008C6C010010B5038804464BB1992B03D199232380012010BD00230380D9
:20110000032010BD1C4806F08DFF04F04FF81B481B4904F06BF81B481B4904F067F81B4823
:201120001B4904F063F81B481B4904F05FF81B481B4904F05BF81B481B4904F057F81B486F
:201140001B4904F053F81B481B4904F04FF81B481B4904F04BF81B481B4904F047F81B488F
:201160001B4904F043F81B481B4904F03FF899232380012010BD00BF04710100A40500209F
:2011800018710100C805002028710100800500203C7101005C050020487101003805002053
:2011A00054710100140500206071010014060020707101003806002080710100F0050020DD
:2011C00090710100F0040020A0710100CC040020A8710100A8040020B071010030B585B0D5
:2011E00069460EF0C3FA0128044602D0204605B030BD084D9DE80F0085E80F00064808F08D
:2012000015FD28460EF05AFA0A2006F003FF204605B030BD4C0B0020007201002DE9F041A1
:2012200040F23E7C4FF6547E4BF6BB3847F2FE4748F248560D4B0E4C1A4600252046402123
:20124000A3F80080A3F808C0A3F80AE09F81DE815D809D80DD80FFF703F941F661620123A5
:20126000A4F8402084F84230BDE8F0814C0B0020C43C00202DE9F043048883B00546FCB1D7
:20128000B4F5897F16D14E4B1B788B4239D04D4B1B788B4264D04C4B1B788B427CD04B4BAF
:2012A0001B788B422AD04FF489732B80012003B0BDE8F08300230380032003B0BDE8F0836A
:2012C000434806F0AFFEFFF7A9FF2146224620460DF0F2FD46F21E1103463E4A01823E48E0
:2012E000136003F02DF93D4803F02AF93C4803F027F94FF489732B800120D8E7FFF78EFFE3
:20130000D1E710461646FFF769FF0028CBD101466422344815F040FA304615F0F1FA6228C9
:20132000024646D8471C07F0FF07B94680462D4C3146204615F056F92B4B264AB3F8203196
:201340002A4E5BBA9BB24FF00A0E1068214600934A46274B04F808E037700EF093FAA2E749
:20136000244B1B789B079ED5002164221D4815F013FA214B21491A881C4B622A86BF632203
:201380001446D4B2096817481C7015F02BF915491B4808F04BFC86E71A48FFF71FFF1A4BA0
:2013A00093F82231012B7FF47EAF184806F0FEFF79E74FF064094FF063084F464246B6E7C0
:2013C0005D4700205E470020083D00202C3D002018720100480B0020A40600209406002014
:2013E0009C0600205C0B0020E43B0020AA3B00204C0B0020D0400020383D0020DC400020E8
:201400009C7B0100C43C0020E43B002001AF00000B2901D00020704770B515460A460F49A1
:201420001C4615F09BFA064620B9402C04DD4FF0FF3070BD002070BD2846FFF7CFFE0028FD
:20144000F8D031464022064815F0A6F929462246034815F0C7F8012070BD00BF3072010063
:20146000C43C00200D2901D00020704710B514460A460B4915F072FA08B1002010BD20462E
:2014800015F030F84FF6FE720346411E91429DBF044A0120A2F820314FF0FF3010BD00BF3F
:2014A0003C720100E43B00200B2901D00020704710B514460A460F4915F050FA08B1002073
:2014C00010BD204615F00EF8044660B1012807D1094B0A4883F8224106F068FF204610BD5E
:2014E0004FF0FF3010BD044B83F8220106F05EFF012010BD4C720100E43B002001AF0000D5
:20150000022005F0BBBF00BFF8B5244D00212868D02215F041F92A68214B224C03CB1060D1
:201520002E681F889D7820681F4B516017819572B4F804E0A57930629C88186899791B4FB7
:20154000A6F824E086F82650306606F1800507F1200EA6F8644086F866103C460FCC744571
:2015600028606960AA60EB6007F1100705F11005F3D140F25B713868B7F804E0BC792B2234
:201580004FF470632860A5F804E0AC71A6F8CC1086F8C020C6F8C8300120F8BD303D00201E
:2015A0006C720100787201008072010088720100F0B5244C244A2368507991791778567835
:2015C0009578D27989B003F1200E049005910692CDF800E00197029603951C4840211C4AFE
:2015E00008F04AFB3F281DD823681A48C0334021194A08F041FB3F281ED8236817486033A0
:201600004021174A08F038FB3F2818D800231946144C154A15482380137009B0BDE8F04034
:2016200009F0F2B901461248402208F0FFFA0E4BFE221A7009B0F0BD01460E48F4E70146EA
:201640000D48F1E7303D002004470020700C0020B0720100EC0B0020287301002C0C00209B
:2016600040730100943B0020AB3B0020C00B0020D4720100F07201000C7301002DE9F04363
:20168000048897B0054634B340F26F339C421CD1B74C0E4623788B4242D0B64B1B78B3424C
:2016A0004AD0882E27D0822E28D0B34B1B78B34224D02378B3427DD0B04B1B78B3427ED093
:2016C00040F26F3301202B8002E000230380032017B0BDE8F083AA4806F0A4FCA94BAA4A70
:2016E0001A60FFF711FF012800F0C98002202C8017B0BDE8F083A54B9A42D6D1A44C23785D
:20170000032B64D02CD9052B1ED06DD3062B00F00981FE2B40F00F819E4806F083FCCBE763
:201720009D4B9A42B9D19A4B1978FF29B5D19B48012101701970B0E794484FF4206105926A
:2017400009F062F9059AACE7944F3B78042B40F2FA80FF2323708D48402109F055F9ABE7CE
:20176000012B00F0BC8000F2D3808D4F2023DFF814928C498C4A009338468C4B05F05AFB53
:20178000D9F80080404615F0BBF889490246404615F0E4F8002800F09580D9F8002092F891
:2017A0004030002B40F08980824806F03BFCFF232370D0E7784B9A427FF47EAF9EE7FFF738
:2017C000A3FE72484FF4206109F01EF978E76D4B1F68384615F094F875490246384615F0A4
:2017E000BDF808B904232370734809F025FB10B16A4B00221A706A4890F86A70002FAAD105
:2018000090F86030082BA6D190F87432002BA2D023785F4C032B00F0F980022005F024FE25
:201820008021664A66483B4608F0D8FF654BDFF8D4911C88DFF8D0810134A4B21C80C8F8BA
:20184000009006F0B3FA009401904FF4007148465D4A5E4B08F010FAB0F5007F0446C0F07E
:20186000DD8002464FF40071594808F0DFF9454B46481B68D3F8C81009F0C6F81CE7554803
:2018800002F05EFE544802F05BFE544802F058FE534802F055FE534802F052FE524802F0E6
:2018A0004FFE524802F04CFE514802F049FE514802F046FEFFF77CFE02E7403238464E4984
:2018C00005F0AEFB4D4ADFF8D4E000230120136053609360D3607B758EF800002070012091
:2018E0000CF004F978B1274B2D481A68D2F8C83002F1800103EB43039BB2B2F8CC2005F01B
:20190000DBFA022323702148102109F07DF8D3E6022005F0A9FD2A481021284A002308F08C
:201920005DFF18E71E4B93F86030032B7FF413AFFFF73EFEC0E6022005F096FD21783048D2
:2019400008F074F9B8E6164805F0E4FA3B780F480133DBB2022B9ABF4FF4807199404FF4B2
:2019600000613B7009F050F801232370A4E600BF5C4700205A470020E03B00202C3D0020D2
:2019800058730100303D0020F43B0020C00B0020AB3B002040740100C4820100AC3B0020AB
:2019A000D40E0020C4060020700C0020351B00006C72010074730100E40B00200115000063
:2019C000B00C0020943B0020A8730100506E0100DC730100AC060020B4060020E40600205B
:2019E000BC060020EC060020DC060020D4060020FC060020F406002098730100D40B0020B0
:201A000054740100D00C0020D00E00203B4639463D4A05F091FA0423237028E7D8F8003033
:201A200039460344402206A8C8F8003014F0B4FE0CF030FD4021024606A8FEF711FD334A2A
:201A4000C4F50074126806AB00922146304AD8F8000008F011F9021E01DB944204DC2146D0
:201A60002C4808F0E3F802E7D8F80030A41A1A44C8F800200CF00EFD0346DFF8B4E05968BE
:201A80009A680068DB68244FAEE80F00FEF752FD386008B3C146437FCBB1436800F11F01E9
:201AA000B3F1004F1D4A12D0836901910093C3682146D8F8000008F0DFF8021ECFDB944208
:201AC000CDDDD9F80030A41A1A44C9F800203B68186838600028DED1114AD8F8000021463A
:201AE00008F0CAF8021EBADBA242B8DA0D4814F007FF00218DE8030002910B4A094B0B487A
:201B000005F04EFAB3E600BFEC0B00200C0B002008740100DC730100D00B00202C74010079
:201B20003C740100D00C00202C0C0020D40E0020D40B0020012938B525D014461AD304291F
:201B400017D1274A94F84E30146013B1002384F84E30201D14F0D4FE80B21728A56CB4F88C
:201B6000503001D1012B19D0BDE838401D4806F059BA38BD1C484FF4207109F049F91B4BA5
:201B800003221A7038BD194B1A78062A17D005221A701748BDE8384009F0FCB804F11700AE
:201BA0001449042214F004FF10B1134806F03AFA04F10E001149042214F0FAFE00B138BD30
:201BC0002B78312B06D0302BF9D1BDE83840012005F054BC0120BDE8384005F045BC00BFD5
:201BE0006C0C002070740100E40B0020AB3B0020C406002098740100A0740100B47401001E
:201C000008B5054B062205481A7008F037FFBDE80840034805F07EB9AB3B0020C00B002035
:201C2000D40E0020062901D00020704770B515460A4611491C4614F091FE58B9202C0DDD65
:201C40004FF0FF340D4B1B78062B05D0FFF7D8FF204670BD002070BD204670BD084E014644
:201C60002022306814F098FD22463068294614F0B9FC0124E6E700BFBC740100AB3B0020E1
:201C8000303D0020072901D00020704770B514460A4612491D4614F061FE58B9202D0DDDA7
:201CA0004FF0FF340E4B1B78062B05D0FFF7A8FF204670BD002070BD204670BD094B20221A
:201CC0001E6801461644304614F066FD214630462A4614F087FC0124E4E700BFC474010044
:201CE000AB3B0020303D00200D2901D00020704770B514460A4612491D4614F02FFE58B9A4
:201D0000202D0DDD4FF0FF340E4B1B78062B05D0FFF776FF204670BD002070BD204670BD4A
:201D2000094B01461E6820226036304614F034FD214630462A4614F055FC0124E4E700BFAE
:201D4000CC740100AB3B0020303D0020082901D00020704738B515460A4617491C4614F078
:201D6000FDFD58B9082C0DDD4FF0FF34134B1B78062B05D0FFF744FF204638BD002038BD28
:201D8000204638BD0E4B22461B68294683F8C00083F8C10083F8C20083F8C30083F8C40004
:201DA00083F8C50083F8C60083F8C70003F1C00014F018FC0124D9E7DC740100AB3B002058
:201DC000303D00200A2901D00020704770B514460A4612491D4614F0C1FD58B9202D0DDD04
:201DE0004FF0FF340E4B1B78062B05D0FFF708FF204670BD002070BD204670BD094B014674
:201E00001E6820224036304614F0C6FC214630462A4614F0E7FB0124E4E700BFE874010009
:201E2000AB3B0020303D0020092901D00020704770B514460A4612491D4614F08FFD58B907
:201E4000402D0DDD4FF0FF340E4B1B78062B05D0FFF7D6FE204670BD002070BD204670BD8A
:201E6000094B01461E6840228036304614F094FC214630462A4614F0B5FB0124E4E700BF6F
:201E8000F4740100AB3B0020303D0020092901D00020704708B50A46074914F05FFD38B9BE
:201EA000064B1B78062B05D0FFF7AAFE012008BD002008BD012008BD00750100AB3B00206D
:201EC0000B2901D00020704710B514460A460F4914F044FD08B1002010BD204614F002FB0D
:201EE0004FF6FE73421E9A420DD8094B094A1B781268062BA2F8CC0003D0FFF781FE012057
:201F000010BD012010BD4FF0FF3010BD0C750100AB3B0020303D0020082901D000207047DD
:201F200010B514460A460B4914F018FD08B1002010BD204614F0D6FA074B421F9A4206D878
:201F4000064AC30112680120C2F8C83010BD4FF0FF3010BD986F01007B510100303D0020B6
:201F60000CB4F0B5B0F8303183B0B3F5B37F04460D463FD0B3F5B87F2FD043B10023032022
:201F8000A4F8303103B0BDE8F04002B0704709AF00F180063B468121089A3046019707F05A
:201FA00087FED4F854310246C1187F29C4F8740144DCE018314614F015FBD4F85421D4F8A1
:201FC00074311A44C4F85421002DD7D0002AD5DD4FF4B873A4F8303101E0D0F8542104F59B
:201FE000987021460CF0C2FD01283BD90023C4F85431C3E7D0F8542104F5987021460CF0CB
:20200000B5FD01282ED9D4F87831D4F8742100219342C4F85411B1DA03F18001D21A2144A0
:20202000204614F0DFFAD4F87431D4F87811D4F854215B1A1A44C4F85421C5E7C3F1800270
:202040003146E01814F0CEFAD4F8543180214FF4B370CB1A0A46C4F87831C4F85411A4F896
:202060003001C9E7002003B0BDE8F04002B0704770B5044640F28B10B4F8AA3182B08342B4
:2020800069D0B3F5C67F80F08880B3F5C07F0E46154624D000F2C680B3F5BF7F07D012D839
:2020A000002B40F0F4804FF4BF73A4F8AA31204600217D4AFFF754FF012840F2C08040F201
:2020C0007F13A4F8AA3120460021784AFFF748FF012840F2B4804FF4C073A4F8AA3120468F
:2020E0000021734AFFF73CFF012840F2A8804FF4C173A4F8AA31324620460021FFF730FF3C
:20210000012840F29C8040F28313A4F8AA3120460021684AFFF724FF012840F29080B5B1E6
:20212000C4F858512B6893B140F28713A4F8AA312A6820460021FFF713FF01287FD9D4F8B2
:2021400058510435C4F858512B68002BECD140F28B13A4F8AA3120460021574AFFF700FF59
:2021600001286CD94FF4C673A4F8AA3120460021524AFFF7F5FE012861D940F28D13A4F821
:20218000AA31204600214E4AFFF7EAFE012856D940F29113A4F8AA310EE0B3F5CB7F7FD093
:2021A00050D840F28D129342EBD0B3F5C67FDDD940F2911293426AD120460021414AFFF706
:2021C000CFFE01283BD9404808F0DAFE02464FF4CB73C4F86001A4F8AA3153689268204625
:2021E00000920021394AFFF7BBFE012827D9D4F860311A68C4F8602192B340F29B13A4F8F4
:20220000AA3153689268204600920021304AFFF7A7FE012813D9D4F860311B681A46C4F8EF
:202220006031E9E740F2831293423FF470AF40F28712934231D0B3F5C17F28D15BE700206B
:2022400002B070BDB3F5D07F0ED040F2A312934216D040F29B12934219D1D4F86021D0E786
:202260004FF4D073A4F8AA3120460021194A1A4BFFF776FE0128E2D940F2A313A4F8AA3165
:2022800020460021154AFFF76BFE0128D7D900230320A4F8AA3102B070BDD4F8585147E7E1
:2022A000D4F8602199E700BFA4760100CC750100DC7501003C76010070750100347601009F
:2022C0002C750100B476010000170020C0760100D8760100F476010034160020FC7601002C
:2022E00030B5B0F8A83183B0B3F5357F044600F0D9811AD9B3F5407F00F0BD8251D8B3F5FB
:202300003B7F00F022827BD940F2F622934200F0898200F27B83B3F53C7F00F0238240F2E7
:20232000F322934200F02D823AE3B3F52B7F00F0098117D840F29A22934200F0B58071D90A
:2023400040F2A322934200F0D680B3F5297F80F04283B3F5277F00F0B380B3F5287F00F036
:20236000BB801DE340F2BD22934200F03D8136D940F2C722934200F05F81B3F5327FC0F0B6
:20238000658340F2CD22934200F0708140F2D122934200F0788140F2CA22934240F00083F5
:2023A00057E140F21332934200F0B182B3F5457FC0F0FC8240F21A32934200F0C98240F21C
:2023C0004E8340F21E32934200F0D882B3F5487F00F0DF82B3F5477F40F0E282C3E2B3F57C
:2023E0002D7F00F0D88000F2278340F2AF22934200F0B78040F2B222934200F0BF80CFE293
:2024000040F2DE22934200F0748100F20A8340F2D722934200F0538140F2DA22934200F09A
:202420005B81BDE240F29122934200F02D8300F2E782002B00F0238340F28D22934240F0C5
:20244000AF82D74D2046A968D64AFFF711FE012840F2BE8240F29123A4F8A831204600210E
:20246000D14AAB68FFF77CFD012840F2B18240F29623A4F8A8316B6820460021CB4AFFF76C
:202480006FFD012840F2A4824FF42673A4F8A83120460021C64AFFF763FD012840F298829C
:2024A00040F29A23A4F8A83120460021C14AFFF757FD012840F28C824FF42773A4F8A83121
:2024C00020460021BC4AFFF74BFD012840F280824FF42873A4F8A831B84B20460093002164
:2024E000B74AB84BFFF73CFD012840F2718240F2A323A4F8A83120460021B34AB34BFFF776
:202500002FFD012840F2648240F2A623A4F8A83120460021AE4AAF4BFFF722FD012840F2F5
:2025200057824FF42A73A4F8A83120460021AA4AA24BFFF715FD012840F24A824FF42B73F5
:20254000A4F8A8319D4B204600930021A34A9D4BFFF706FD012840F23B8240F2AF23A4F87E
:20256000A83120460021984A984BFFF7F9FC012840F22E8240F2B223A4F8A831204600213D
:20258000934A974BFFF7ECFC012840F221824FF42D73A4F8A83120460021924A874BFFF71D
:2025A000DFFC012840F214824FF42E73A4F8A831824B2046009300218B4A824BFFF7D0FCAB
:2025C000012840F2058240F2BB23A4F8A831204600217D4A7D4BFFF7C3FC012840F2F881F5
:2025E00040F2BD23A4F8A831204600217F4AFFF7B7FC012840F2EC814FF43073A4F8A83138
:20260000204600217A4A6D4BFFF7AAFC012840F2DF814FF43173A4F8A831684B2046009358
:202620000021744A674BFFF79BFC012840F2D08140F2C723A4F8A83120460021624A634B5E
:20264000FFF78EFC012840F2C38140F2CA23A4F8A831204600215E4A674BFFF781FC01284A
:2026600040F2B68140F2CD23A4F8A83120460021624A524BFFF774FC012840F2A98140F26D
:20268000D123A4F8A8314D4B2046009300215C4A4C4BFFF765FC012840F29A814FF435732A
:2026A000A4F8A83120460021474A484BFFF758FC012840F28D8140F2D723A4F8A831204640
:2026C0000021434A4F4BFFF74BFC012840F2808140F2DA23A4F8A831204600214A4A374BD8
:2026E000FFF73EFC012840F2738140F2DE23A4F8A831324B204600930021444A314BFFF71C
:202700002FFC012840F2648140F2E123A4F8A831204600213E4A2D4BFFF722FC012840F2AD
:20272000578140F2E623A4F8A8313A4B2046D3F8D8300021DB09384AFFF712FC012840F26D
:2027400047814FF43B73A4F8A83120460021334A1A4BFFF705FC012840F23A814FF43C73E3
:20276000A4F8A831154B2046009300212C4A154BFFF7F6FB012840F22B8140F2F323A4F8C2
:20278000A83120460021104A104BFFF7E9FB012840F21E8140F2F623A4F8A83142E000BFAF
:2027A000800700202C0700200877010014770100347701004C77010070770100E475010061
:2027C000887701005C7501009877010034750100B0770100143C0020BC770100D077010059
:2027E000F43B0020DC770100F0770100007801000C78010024780100B43C00203878010072
:202800004C780100543C0020607801007878010090780100E43B0020A8780100B8780100DF
:20282000E078010020460021984A994BFFF798FB012840F2CD8040F2F923A4F8A831204698
:202840000021944A944BFFF78BFB012840F2C08040F2FD23A4F8A8318F4B204600930021C8
:202860008E4A8F4BFFF77CFB012840F2B1804FF44073A4F8A831204600218A4A8A4BFFF71C
:202880006FFB012840F2A48040F20333A4F8A831864B2046B3F8DC300021854AFFF760FB43
:2028A000012840F2958040F20733A4F8A83120460021804A784BFFF753FB012840F288800C
:2028C00040F20B33A4F8A831204600217A4AFFF747FB01287CD940F20D33A4F8A8312046C5
:2028E0000021764AFFF73CFB012871D940F21133A4F8A831724B20465B680021714AFFF7B4
:202900002FFB012864D940F21333A4F8A831204600216D4AFFF724FB012859D940F2153312
:20292000A4F8A83120460021684AFFF719FB01284ED940F21733A4F8A83120460021644A69
:20294000FFF70EFB012843D940F21A33A4F8A831204600215F4AFFF703FB012838D94FF49E
:202960004773A4F8A831204600215B4AFFF7F8FA01282DD940F21E33A4F8A8312046002166
:202980004E4AFFF7EDFA012822D94FF44873A4F8A83120460121514AFFF7E2FA012817D91D
:2029A00000230320A4F8A83103B030BD40F20B32934289D0B3F5437F17D240F20332934290
:2029C0003FF466AF40F2073293423FF470AFE7E7002003B030BD40F2A62293423FF498AD48
:2029E000B3F52A7F3FF4A1ADDAE740F20D3293423FF475AF40F2113293423FF47BAFCFE74A
:202A000040F29622934235D12D4D34E540F2F92293423FF414AF40F2FD2293423FF41CAF22
:202A2000BEE740F2E12293423FF472AE40F2E62293423FF47AAEB3E7B3F52E7F3FF4B8ADA3
:202A400040F2BB2293423FF4C2ADA9E7B3F5307F3FF4D6ADB3F5317F3FF4DFADA0E740F283
:202A6000153293423FF45EAF40F2173293423FF464AF95E7B3F5267F3FF40AAD90E740F208
:202A80008D23A0F8A831DCE40D4DE7E4B0770100743C0020F0780100E475010004790100F7
:202AA0005C7501009078010034750100E43B00201879010024790100507901007879010066
:202AC0008007002014770100347701004C7701007077010080790100B4790100EC750100E1
:202AE00030B5B0F8A83185B0B3F5547F044600F0B78039D840F23D32934263D000F26981B9
:202B0000B3F54D7F00F09B8146D8002B00F09081B3F54C7F40F04781CA4D2046A968CA4ADE
:202B2000FFF7A6FA012840F244814FF44D73A4F8A83120460021C54AAB68FFF711FA012894
:202B400040F2378140F23933A4F8A8316B6820460021BF4AFFF704FA012840F22A8140F2E9
:202B60003B33A4F8A83121E040F26632934200F0CA8000F2218140F25A32934200F09B8066
:202B800000F2418140F25332934278D040F25632934200F0818006E140F23932934200F0E4
:202BA0004C8140F23B32934240F0FD8020460021A84AFFF7D5F9012840F2FB8040F23D3372
:202BC000A4F8A83120460021A34AFFF7C9F9012840F2EF8040F23F33A4F8A83120460021EA
:202BE0009E4AFFF7BDF9012840F2E38040F24333A4F8A8319A4B204600930021994A9A4B9F
:202C0000FFF7AEF9012840F2D48040F24633A4F8A83120460021954A954BFFF7A1F9012849
:202C200040F2C78040F24933A4F8A83120460021904A914BFFF794F9012840F2BA804FF460
:202C40005373A4F8A831204600218C4A844BFFF787F9012840F2AD804FF45473A4F8A83190
:202C60007F4B204600930021854A7F4BFFF778F9012840F29E8040F25333A4F8A831204664
:202C80000021804A7A4BFFF76BF9012840F2918040F25633A4F8A8317B4B2046B3F8203166
:202CA00000217A4AFFF75CF9012840F2828040F25A33A4F8A83120460021754A684BFFF764
:202CC0004FF9012875D940F25F33A4F8A8317149634A674B20468DE80E0000216E4A624B74
:202CE000FFF73EF9012864D940F26233A4F8A83120460021694AFFF733F9012859D940F21C
:202D00006633A4F8A831604A654B92F82211654A2046002908BF13460021634AFFF720F953
:202D2000012846D94FF45A73A4F8A831204600215E4AFFF715F901283BD940F26D33A4F8E8
:202D4000A831514A564992F82201564B444A002808BF0B46009220460021554AFFF700F99D
:202D6000012826D940F27133A4F8A83120460021504AFFF7F5F801281BD940F27333A4F84B
:202D8000A831204600214C4AFFF7EAF8012810D940F27533A4F8A83120460121474AFFF7F5
:202DA000DFF8012805D900230320A4F8A83105B030BD002005B030BD40F271329342D5D0C7
:202DC00018D8B3F55A7FB1D040F26D329342B8D0E9E740F2463293423FF41BAF1ED840F25F
:202DE0003F3293423FF4FAAE40F2433293423FF401AFD8E740F273329342C2D040F275327D
:202E00009342C9D0CFE740F25F3293423FF45FAF40F2623293423FF46BAFC4E740F2493275
:202E200093423FF403AFB3F5537F3FF40CAFBAE74FF44C73A0F8A8316EE6024D86E6014DFF
:202E400077E600BF0C0700202C0700200877010014770100347701004C770100707701006C
:202E6000E4750100E07901005C7501009877010034750100B0770100C43C0020F47901005C
:202E80000C7A010090780100E43B0020207A01002C7A0100647A0100587A01006C7A010088
:202EA000D4790100047401008C7A0100B07A0100D07A01005079010078790100EC750100B0
:202EC000F8B540F21A460446B0F8A8011546B0421F466FD020D940F22443984248D040F271
:202EE0002643984250D040F21F43984253D1D4F858311A6820460021FFF732F801284FD90E
:202F0000D4F858310433C4F858311A6862B340F21F42A4F8A821ECE740F21243984206D047
:202F200040F2154290423DD0A8BBA4F8A8310A4620460021FFF714F8012831D9254AC4F81A
:202F4000582113688BB340F21543A4F8A831126820460021FFF704F8012821D9D4F85821E5
:202F60000432C4F85821ECE740F22443A4F8A8312B4620460021184AFEF7F2FF01280FD9B4
:202F800040F22643A4F8A83120460121134AFEF7E7FF012804D90023A4F8A8310320F8BDEB
:202FA0000020F8BDD4F85821D1E75FB140F21A43A4F8A8313B4620460021094AFEF7D0FF0C
:202FC0000128EDD9069B002BCED0069BC4F858319BE700BF58070020047B0100187B0100DE
:202FE000F47A010010B5B0F8A83184B0B3F5137F044600F09E811ED9B3F51B7F00F00E829C
:2030000039D840F25722934200F0C681B3F5167FC0F00C8140F26222934200F0DC8140F264
:20302000748240F26622934200F0E281B3F51A7F00F0E98153E240F22B22934200F06F82B3
:20304000B3F50B7F32D340F23922934200F0D38040F20881B3F5107F00F0458140F2328107
:2030600040F24522934200F04A8140F24A22934200F0518133E240F27622934200F0FC81D1
:2030800040F2E28040F27B22934200F00B82B3F51F7FC0F03F8240F27D22934200F00D829F
:2030A00040F27F22934200F0138218E240F21E22934227D000F21C8240F21522934208D005
:2030C00040F219218B4211D0002B40F00882A0F8A8216B4B204699686A4AFEF7C9FF0128D9
:2030E00040F2038240F21923A4F8A83120460021654AFEF735FF012840F2F78140F21E2391
:20310000A4F8A8315E4B20465B6800215F4AFEF727FF012840F2E9814FF40873A4F8A8318B
:20312000204600215A4AFEF71BFF012840F2DD8140F22223A4F8A83120460021554AFEF795
:203140000FFF012840F2D1814FF40973A4F8A83120460021504AFEF703FF012840F2C581C7
:20316000FDF7E8F9C4F85C01002800F0DB8140F22B23A4F8A831C168484A494B20468DE8CE
:203180000E000021474A484BFEF7EAFE012840F2AC8140F22E23A4F8A83120460021434A6B
:2031A000FEF7DEFE012840F2A08140F23223A4F8A831D4F85C313E49587F3E4A5B6900289B
:2031C00018BF0A462046009200213B4AFEF7C8FE012840F28A814FF40D73A4F8A83120466B
:2031E0000021364AFEF7BCFE012840F27E8140F23923A4F8A831D4F85C312E49587F2C4A05
:203200005B69002818BF0A46244900920191204600212B4AFEF7A4FE012840F26681D4F869
:203220005C311B681846C4F85C319DE7B3F5147F00F09780B3F5157F00F09F8040F24E2224
:20324000934240F04C8180E040F27222934200F0FD80B3F51D7F00F00481B3F51C7F40F008
:203260003E81E6E040F232229342A2D0B3F50D7FB5D040F22E22934240F031818DE700BFD7
:203280001C0700202C0700202C7B010014770100347701004C77010070770100E4750100B2
:2032A00034750100587A01005C7501006C7A0100D479010004740100407B0100B07A01002A
:2032C000587B010040F23E22934240F0088120460021974AFEF744FE012840F206814FF436
:2032E0001073A4F8A83120460021924AFEF738FE012840F2FA8040F24523A4F8A8312046FE
:2033000000218D4AFEF72CFE012840F2EE8040F24A23A4F8A831894B20465B680021884AC9
:20332000FEF71EFE012840F2E0804FF41373A4F8A83120460021834AFEF712FE012840F2CF
:20334000D48040F24E23A4F8A831204600217E4AFEF706FE012840F2C8804FF41473A4F8B0
:20336000A83120460021794AFEF7FAFD012840F2BC804FF41573A4F8A831754B20460093AE
:203380000021744A744BFEF7EBFD012840F2AD8040F25723A4F8A831204600216F4A704B0E
:2033A000FEF7DEFD012840F2A0804FF41773A4F8A8316C4B2046DB680021002BB8BF7F33AB
:2033C000DB11694AFEF7CCFD012840F28E8040F26223A4F8A83120460021644A5C4BFEF72A
:2033E000BFFD012840F2818040F26623A4F8A831204600214E4AFEF7B3FD012875D94FF407
:203400001A73A4F8A831204600214A4AFEF7A8FD01286AD94FF41B73A4F8A83120460021BC
:20342000534AFEF79DFD01285FD94FF41C73A4F8A831424B20465B680021414AFEF790FDD4
:20344000012852D940F27223A4F8A831204600213C4AFEF785FD012847D94FF41D73A4F8A0
:20346000A83120460021384AFEF77AFD01283CD940F27623A4F8A83120460021334AFEF787
:203480006FFD012831D940F27923A4F8A83120460021384AFEF764FD012826D940F27B23F3
:2034A000A4F8A83120460021334AFEF759FD01281BD940F27D23A4F8A831204600211D4AF6
:2034C000FEF74EFD012810D940F27F23A4F8A83120460121294AFEF743FD012805D90023F7
:2034E0000320A4F8A83104B010BD002004B010BD40F2222293423FF41FAEB3F5097F3FF464
:2035000027AEB3F5087FEAD10AE6B3F5177F3FF450AFE4E740F279229342B8D0DFE7D0F809
:203520005C0128E640F23E23A4F8A831CFE600BF5079010078790100747B01001C070020B5
:2035400014770100347701004C77010070770100E47501008C7B01005C750100907801004A
:2035600034750100E43B0020A8780100A07B0100CC7B0100E07B0100107C0100EC75010092
:2035800040F2DF1270B5B0F8A83192B09342044608BF02AD00F01D81B3F5F07F1CD2B3F550
:2035A000E17F08BF02AD00F0BF8132D9B3F5E87F00F0708240F2A68040F2D712934200F0D1
:2035C000DC8040F2DB12934200F0EA8040F2D312934240F08B81C4E0B3F5FD7F00F05C8283
:2035E0007DD940F20322934200F04F81B3F5017FC0F0388140F20622934200F06581B3F54B
:20360000027F00F06C8140F20522934240F06E814CE140F2B512934218D0B3F5DB7F80F0AA
:203620009581002B00F0168240F2B112934240F05D81CB4B204699680022FEF719FD012816
:2036400040F2658140F2B513A4F8A83120460021C44AFEF785FC012840F25981C24B186816
:203660000FF0D6FC0346C4F86801002B00F0D0814FF4DD73A4F8A83120460021BB4AFEF716
:203680006FFC012840F2438102AD00214022284613F082F828464021D4F86821FCF7E0FE8E
:2036A0004FF4DF73A4F8A83120460021B04A2B46FEF756FC012840F22A81284600214022D0
:2036C00013F06AF8D4F868315B7C042B00F22881DFE813F0D801D2012001C501CC0140F223
:2036E000EB12934200F0AD80B3F5F67F80F05C81B3F5F17F7AD040F2E712934240F0F68069
:2037000002AD92E0B3F5E37F00F0868140F2CB12934240F0EB8020460021964AFEF720FC90
:20372000012840F2F48002AD00214022284613F033F80AF0AFFE402102462846FCF790FEAD
:203740004FF4E873A4F8A8312B4620460021884AFEF706FC012840F2DA8040F2D313A4F82C
:20376000A83120460021844AFEF7FAFB012840F2CE8040F2D713A4F8A831204600217F4AA7
:20378000FEF7EEFB012840F2C2800AF0B7FCC4F86401002800F0B08040F2DB13A4F8A83103
:2037A00020460021714AFEF7DBFB012840F2AF8002AD00214022284612F0EEFFD4F8642192
:2037C000284608324021FCF74BFE40F2DF13A4F8A8312B4620460021654AFEF7C1FB01288A
:2037E00040F295804FF4F173A4F8A831D4F86431204693F824300021614AFEF7B1FB01282A
:2038000040F2858002AD00214022284612F0C4FFD4F864010AF064FC402102462846FCF777
:203820001FFE40F2E713A4F8A8312B46204600214F4AFEF795FB012869D940F2EB13A4F87D
:20384000A831D4F8643120469B6900214D4AFEF787FB01285BD9D4F864010AF055FCC4F800
:20386000640196E7B3F5FF7F00F0E78040F2012293423BD120460021434AFEF771FB012815
:2038800045D940F20323A4F8A831404E2046358800210135ADB22B463D4A3580FEF760FBD9
:2038A000012834D940F20523A4F8A83104F07EFA00210346374A2046FEF752FB012826D9DC
:2038C00040F20623A4F8A83120460021324AFEF747FB01281BD94FF40273A4F8A83120462E
:2038E00001212E4AFEF73CFB012810D900230320A4F8A83112B070BD40F2EF13A4F8A8319D
:20390000204600211C4AFEF72BFB01287BD8002012B070BD224B93E8030002908DF80C10F6
:203920004FF4E173A4F8A8312B46204600211D4AFEF716FB0128EAD90B4BD4F8681118680F
:203940000FF02EFB0346C4F868018EE6B3F5DD7F3FF492AEB3F5DF7FC8D102ADA4E600BF4F
:2039600070070020387C010030090020287B01009C7B0100907C0100807C0100A87C0100B7
:20398000BC7C0100C87C0100F87C0100963B0020007D0100147D010000770100EC75010059
:2039A000647C0100F47C010040F2EF129342A7D040F2F312934299D120460021384AFEF7C2
:2039C000CFFA0128A3D9FCF7B5FDC4F85C0180B34FF4FD73A4F8A831427FC368002A57D023
:2039E00000F11F02009282690021019220462D4AFEF7B6FA01288AD9D4F85C311B6818463C
:203A0000C4F85C31E3E740F2F313A4F8A831D3E74FF4E373A4F8A83120460021224AFEF736
:203A20009FFA01287FF673AF40F2CB13A4F8A83171E64FF4FF73A4F8A831204600211A4A3C
:203A4000FEF78EFA01287FF662AF40F20123A4F8A8310FE740F2B113A0F8A831E9E5134BE6
:203A600093E8030002908DF80C1059E72B46104A07CA03C31A7053E72B460E4A07CA03C3CF
:203A80001A704DE72B460C4A07CA03C31A8047E70A4AA7E702AD57E6D0F85C019CE700BF0D
:203AA000D87C0100EC7C0100807C01006C7C0100747C0100587C01004C7C0100347C010022
:203AC00038B5B0F8303104460D469BB140F2064293420AD1284612F013FF2946024604F5AB
:203AE00098700BF043F8012809D90023A4F83031032038BD40F20643A0F83031EAE70020E0
:203B000038BD00BF40F24B42F0B5B0F8A63183B09342044600F028811AD940F25B4293428C
:203B200000F0D88031D840F25142934246D040F25242934250D040F24C42934258D12046A5
:203B40009649FFF7BDFF01284CD8002003B0F0BD40F23F42934200F0F380B3F5886FC0F0CD
:203B6000D88040F24542934200F0918040F24642934200F09B80B3F5886F39D120468849E4
:203B8000FFF79EFF01282DD8DFE740F26442934263D040F2654293426ED040F25D4293422C
:203BA00026D1A6E0042B00F0C980052B6BD0022B00F0D68040F25143A0F8A631794B2046E3
:203BC00000937949794A0023FFF77AF90128BCD940F25243A4F8A63120467549FFF770FFC0
:203BE0000128B2D9734A102100231170C4F86C3100230320A4F8A63103B0F0BD90F8AD11C7
:203C0000C0F86C310229A0F8A831A0F8AA3100F0BB800129E6D1684807F0B2F904F27D1758
:203C2000054630B949E0284607F010FA0546002843D06E68304612F063FE31460246384646
:203C400012F0B6FE0028EED1EB68C4F86C31002B36D040F26443A4F8A631524B2046009308
:203C60005649574A0023FFF72BF901287FF66DAF40F26543A4F8A631D4F86C312046984712
:203C80000128AFD861E740F24543A0F8A631454B204600934B49454A0023FFF711F901280B
:203CA0007FF653AF40F24643A4F8A63120464649FFF706FF012895D847E70023C4F86C312F
:203CC00004F5BE704149102212F0BCFE40F25B43A4F8A631334B204600933D49384A002360
:203CE000FFF7EEF801287FF630AF40F25D43A4F8A63120463749FFF7E3FE01287FF625AFF7
:203D00002C4A1021002302201170A4F8A63103B0F0BD002B3FF472AF40F23A4293427FF4EE
:203D200067AF0023009320462B49204A04F5BE73FFF7C6F801283FF655AF06E7A0F8A621E7
:203D4000184B204600932549184A0023FFF7B8F801287FF6FAAE4FF48863A4F8A6310DE793
:203D600040F24B43A0F8A6310E4B204600931C490E4A0023FFF7A4F801287FF6E6AE40F2EC
:203D80004C43A4F8A631DAE690F8AE31002B7FF409AF40F23A43A0F8A631C2E7647D0100FB
:203DA0002C7D01000407002088750100487601007C7D0100D040002000170020FC7501009E
:203DC000C075010074760100487D01008C7D0100A47501009C7D0100CC7F010054760100A7
:203DE0001076010040F284422DE9F04FB0F80C3187B09342044600F0788124D940F2A442B6
:203E0000934200F06F8140F23A8140F2BE4293425CD040F2E14293421ED100F58679484632
:203E20000A210AF0FBFE012809D940F2E1434846A4F80C310A210AF0F1FE0128F5D8002072
:203E400007B0BDE8F08F40F2724293420DD040F276418B4237D033B100230320A4F80C312F
:203E600007B0BDE8F08FA0F80C2104F58679484620210AF0D3FE0128E1D904F5C67528468B
:203E8000B549042212F06AFD002840F0D38140F276420123A4F80C2184F8AD3148462021E9
:203EA0000AF0BCFE0128CAD994F88C312F2B00F0F181AA4A1021002302201170A4F80C31B9
:203EC00007B0BDE8F08F00F58679E7E7D0F870B100F586791FFA8BF148460AF0FDFE012827
:203EE000ADD948460AF094FED4F8703104F5C675181AC4F8700148460AF08AFED4F870B125
:203F00000646002800F00C82A846DFF86CA28DE81008DAF800200027531C042B2DD8DFE8CC
:203F200003F05803031A60008D4C002140228D4812F032FC002140228B4812F02DFC0021B3
:203F400040228A4812F028FC8949002302220B602360CAF8002098F800303D2B00F05D8128
:203F6000262B00F0848082490A683E2A7FDC7D4D501CAB54DAF8002008600137BE4208F13C
:203F80000108C9D1009CD4F870B1013224D0794DBBF1000F03DD2B68A34200F0B78194F841
:203FA000AE3133B9744B1B68012B1CBF032384F8AE31724E3378002B40F09A812A686D4943
:203FC00000239442337008BF0B60012384F8AC312BE7009CD4F870B10323664D84F8AE31C7
:203FE000D6E798F80030262B00F0A0803D2B00F064815B4C22683E2A00F35F81711E5A4D04
:20400000501C8F42AB54206000F0AB810322B4E7039FDDF81080059C029A002302F80B306C
:20402000524812F06DFC2060554806F0A9FF554D2860002800F081814FF0010B02960AE0AF
:20404000BBF1010F00F07C81286806F0FFFF2860002800F071814668444A424826B1444B75
:2040600019682368B0478346BBF1FF3FE8D1009C4FF0FF33CAF80030D4F870B1ACE740F220
:204080008E4293427FF4E8AE00F5867948460A210AF0C4FD01287FF6D2AE00220423C4F8E7
:2040A000702184F8AE3105E048460AF0B1FD022800F0D08048460AF0ABFD0023204480F860
:2040C0008C3148460AF0A4FD0E2800F2D08040F2A443A4F80C3148460A210AF09FFD012818
:2040E000E2D8ACE600F58679F5E700F58679484620210AF093FD01287FF6A1AE94F88C3121
:204100002F2B7FF4D6AE48460AF082FD0023204480F88B3104F5C67104F5BE70102212F001
:2041200091FC40F28E43A4F80C31AFE70C4CD4F800C0BCF1000F00F01081134A0B4B126832
:204140004FF0000B02939E4605945B460397CDF8108014462CE000BF9C760100D04000200B
:20416000B8160020741A0020C0160020B41A0020701A0020BC160020B4160020AD3B002031
:204180006C1A002008170020940A00202B2A00F09980591C0B468EF800209C450BF1010BC9
:2041A0007FF636AFBBF13F0F0EF1010E3FF430AF6E4AD25C252AE9D16C48591C405C25189A
:2041C0006D7815F0440FE5D0684F1F44BF7804EB070898F8018018F0440FDBD005F003058A
:2041E000012D08BF2030221808F003085278B8F1010F08BF2037550740F19A80000100F004
:20420000F002E1194978033349074CBF303F573FF9B20A438EF80020BFE701370323BE42B9
:2042200008F10108CAF800307FF4DBAE009CD4F870B1ACE628464E49052212F08FFB002893
:204240007FF437AE40F284420223A4F80C2184F8AD314CE7D4F870B1BBF5807F38DD0022C0
:204260000523C4F8702184F8AE31424D97E604F5C67041490F2212F071FB054600287FF424
:2042800026AF04F29B1012F02DF984F8AE51C4F870011CE794F88D31202B30D048460AF0B8
:2042A000B7FC0023204480F88B3104F5C67104F5BE70102212F0C6FB87E64FF0FF32CAF8A5
:2042C00000205AE64FF0200201338EF8002064E794F8AE31274D33B92B6823B39C4218BF0F
:2042E00084F8AE0120D0BBF1000F3FF754AE60E6224B00201978024606F000FD5EE604F5D4
:20430000BE701F49102212F09DFB5EE694F8AE31002B7FF44EAE40F2BE43A4F80C31D9E528
:20432000184B1A6831E62C60164B00221A602FE657380201D2B264E7029EDAF800201CE6EE
:20434000029E114A0137BE42CAF800B008F1010882F800B07FF4E9AD68E70C4BE34602931F
:204360005AE6019B002B7FF451AEE0E6C016002054750100BC160020F87D01005A47002015
:2043800048750100B4160020AD3B0020B41A0020F0B5038889B004467BB140F23E5083421B
:2043A00006D1594B1B788B423CD0012009B0F0BD00230320238009B0F0BD544803F032FE81
:2043C00006F014FC524B18704FF4A0400AF052FD504806F03FFE5048504906F0D3FD4E48EE
:2043E0004F4906F0CFFD4C484E4906F0CBFD4A484D4906F0C7FD4D4A4D4891791378577808
:2044000096785579D279039104920097019602958021484A05F030FC40F23E5301202380AB
:2044200009B0F0BD444D2B7813F0300627D1190625D403F0400101F0FF0791BB002A5FD0C9
:204440001B0702F58270079227D506F0F5FC079A40B1C2F86C71202311462E482B7006F00B
:2044600029FE079A10460792FFF7BCFC079A92F8AC31012BD0D11046FFF744FBCCE7002A9A
:20448000CAD00023C2F86C31C2F85431C2F874311146204806F00EFEBEE706F0C7FC079AAA
:2044A000E0E71C4806F0E8FD074648B3234B014607F5C67518680AF0F7FC294607F58670F4
:2044C00019220AF083FC1922294607F598700AF07DFC07F582704FF4A061A7F8A661C7F870
:2044E0006C6187F8AC6106F093FC3846FFF77AFC97F8AC31012B8FD13846FFF703FB8BE718
:2045000020232B7088E700BF5E470020087E01005A47002064070020001700207007002029
:204520001C0700200C0700208007002004470020341600201C7E0100D0400020E04000207E
:204540000146014806F01EBD6C1A0020014B1860704700BF401C002083790120013B98406D
:20456000C0B270472DE9F047038886B00446ABB1B3F5AD7F0CD1A94B1B788B4219D08829BF
:2045800060D04FF4AD730120238006B0BDE8F08700230380032006B0BDE8F087A048A14985
:2045A00000F024FE00F0B6F943F2163010F05CF8E7E79D4B9D4D1B78002298072A70E0D538
:2045C0009B4B9C4FDFF898923846D9F800101A8810F022FA06462870002836D0DFF88482FD
:2045E000C22ED8F8000000F0D48000F0C1F92A788E4BC32A00F0C980BF2A84BFA0221A70F4
:2046000002213B898B4810F04BF88B4B8B4E1D68284612F075F929460246864810F08CFD7D
:20462000874BD9F800501B782946283381489F5B10F044F8394683B22A4606F1080010F008
:20464000C9F99EE700F00EFA9BE7BB79013B032B2ED97B6823F07F4323F0FF03D3B9C323B5
:204660002B70388900F0EAF9DFF8F881C8F8000040B1C66AD0F830A000F07AF916B1504682
:204680006C49B0472E780023C8F80030002E3FF478AFA5E77B79032BE3D1694B694A1B78D1
:2046A00002F108002833D15A3A8900F097FAD8E7634B644A1B7802F108012833D25A388943
:2046C00000F032F9DFF89C81C8F80000002800F085807B794022039604960596ADF80A20FB
:2046E000002B59D15848022145223B890FF0D8FFBA7A002A5FD104AB00934E4803A900226D
:204700000DF10A0310F0BAFC40B1BDF80A30049A402B28BF40230592ADF80A304B4BD3F8CE
:2047200000C0BCF1000F40D0DFF808A1464ED8F800200DF1140EBDF80A3050463146743227
:20474000CDF800E0E04790B12A78384B8AB99AF81620110748D596F90620002A44DBB27DBA
:20476000120741D434493A48A12208601A702B7833B32E78002E7FF433AFD8F800000028AD
:204780003FF4FFAE00F00AF9FBE600221A70032137E700F0EDF8F4E60FF07AFF01210346E5
:2047A000452229480FF07CFFA2E7234A2949A12311602B70DDE72849234810F087FB9AE7CC
:2047C000D8F80060204806F136010FF077FF80B2B0860028CDD1C1232B70CAE7164A1F4978
:2047E000A32311602B70C4E797F91530059A002B3ADB002AE4D0013218BF012200214023F9
:20480000114810F05BFCB6F89E20D6F8A0103F2A88BF40220C4810F08FFCA8E75E470020B9
:20482000B8070020E47F0100D0400020DD3B0020383D0020981B0020800A00204C3D002012
:20484000CA3B00204C3D0020F41A0020401C0020F87F010018800100A31B00202C80010044
:20486000DC4000203C1C0020049B9A4217D00132039921D0BDF80A300122DFF884A05046BF
:2048800010F01CFCB6F89E30BDF80A2093427FF66EAF5046DAF8A01010F04EFC67E7B6F8E0
:2048A0009E10174E8A4210D38223304615490F22B37110F041FC5AE7B6F89E20BDF80A308F
:2048C0009A4294BF00220122D7E7BDF80A308A1A9A4294BF002201220399304610F0EEFBA4
:2048E0000498B6F89E30BDF80A201B1AD6F8A0109A42014428BF1A46304610F01DFC36E7FA
:20490000F41A0020088001000148002106F022BA90070020024A034B12681A60704700BFE9
:204920003C250020481C0020F8B507460E480D46164606F0A1FB044698B1002387800376AB
:204940002868A9686F68EA68C4F81A00C4F822100648C4F81E70C4F826202146668506F0E7
:2049600011FB2046F8BD00BFA0070020441C002070B110B50446083006F080F82146054880
:2049800006F044FB2146BDE81040034806F092BB704700BF441C0020A00700202DE9F041F4
:2049A000044600F11A063046618D04F13602A38E10F010F894F83650C5F3011595B9237E03
:2049C000032B14D82BB3E3685B00E360184D194B2E681B6804F108002B6006F029F82E60E7
:2049E000BDE8F0812046BDE8F041FFF7C1BF3046618DE66A276B00F061F82046FFF7B8FF4D
:204A00002EB1384629463346BDE8F0411847BDE8F08104F0D5FF084BA3FB0023DB0903EB58
:204A20004303A0EB831303F28113E360CEE700BF3C250020481C0020ABAAAAAA10B5044612
:204A4000074806F09DFA48B18388A34203D106E08388A34202D000680028F9D110BD10BD21
:204A6000441C002010B50C4806F08AFA044610B910E0246874B104F1080005F0E3FF002873
:204A8000F7D0237E204601332376FFF787FF2468002CF0D110BD00BF441C002010B504466B
:204AA0000448214606F006FB2146BDE81040024806F0ACBAAC07002024200020F8B505461B
:204AC0000E480E4606F05CFA0446A0B1002704F118002946102211F053FD10B9238DB342B1
:204AE00004D02468002CF2D13846F8BD2046FFF7D5FF0137F5E70746F6E700BF24200020A3
:204B00002DE9F843054618480E4691461F4606F037FA044630B34FF0000801E02468F4B15C
:204B200004F118002946102211F02AFD0028F5D1238DB342F2D194F82A30BB42EED104F1B2
:204B40002B0049463A4611F01BFD0028E6D12046FFF7A4FF246808F10108002CE0D1404633
:204B6000BDE8F8838046FAE7242000202DE9F843054619488846174606F002FA044640B3B3
:204B80004FF0000908E0294611F0FAFC10B9238D434506D02468CCB1102204F11800002D33
:204BA000F1D1261DBE4209D0304611F0A9FE39460246304611F0E4FC0028EBD12046FFF79B
:204BC0006DFF246809F10109002CE5D14846BDE8F8838146FAE700BF242000202DE9F04137
:204BE000054613480E46174606F0CAF90446E8B14FF0000801E02468ACB104F11800294635
:204C0000102211F0BDFC0028F5D1238DB342F2D1A38EBB42EFD12046FFF740FF246808F144
:204C20000108002CE9D14046BDE8F0818046FAE7242000202DE9F0434468DBB08046204632
:204C40000E4611F05DFE0546214603A8132211F0F9FE122D07DC36B103AB31465819C5F1C5
:204C6000130211F0EFFE00273B4608A8012145228DF81F700FF014FD3B460122394631A830
:204C80000FF00EFD03A931A810F09AF903A811F037FE0646334806F073F9044600285ED048
:204CA000DFF8C4900CE0864207DA98F80830DB0603D5A3191B792F2B08D02468002C4ED05B
:204CC000251D284611F01CFEB042ECD1294603A8324611F06DFE0028EFD10FF0D9FC04F1AB
:204CE0001801228DFFF720FE05460028E5D0A16B89FB0123CA17C2EBE30303EB8303B1EB78
:204D0000830308BF8DF82530838808A9A386AB88D8F810C0ADF8283031A84023009705F1EE
:204D20007402E0479DF92630002B05DBA16B08A84B1CA36310F09AF994F82A2004F12B012C
:204D400008A810F0C3F805F1360108A80FF0B6FCA8862846FFF722FE2468002CB0D15BB064
:204D6000BDE8F08324200020676666660021FFF761BF00BF0B468979012900D0704792F999
:204D800006100029FADBD97C4906F7D5596E69B10129F3D12E4A2F49127801F108002832F2
:204DA000895A03F10B029B7AFFF7AABE2DE9F04F1446274A28481278D3F860B02832175ADC
:204DC00081B039465A460830DE6D03F10B0993F80A80FFF7CBFE214806F04EF9B24605463B
:204DE00058B3122EC4BF1326B24659463246043011F0F8FB4FF0000BAA44194B8AF804B0A3
:204E000005F118060FCB86E80F00494642462F8585F82A8005F12B0011F0E4FB2946A5F828
:204E200034B0104806F0AEF82046A96B4B1CAB6301B0BDE8F04F10F019B920460A49A323C5
:204E40001022A37101B0BDE8F04F10F075B900BFCA3B00204C3D00204C3D0020AC07002040
:204E6000543D0020242000205C8101002DE9F04F83B0019100921F46DDF8308000F0E6F9DA
:204E800006F07EF8002800F0BC803B46D8F800B000252C465E4607469A46B44208D355457E
:204EA00012D24FF03C02009B5A55D8F800600135631CB34208D3554506D24FF02F02009B15
:204EC0005A55D8F800600135D7F804B00234584611F016FD00EB0409B14553D805D35545C7
:204EE00003D2009A3E2353550135FE6809F10104BEB13378ABB1D8F800B05C4508D3554593
:204F000006D2009A3B235355FE68D8F800B00135304611F0F5FC09F1020900EB09045C45F7
:204F20000FD8554504D9D8F80030621B9A425AD83F68002F3CD0BCB9D8F80060B442B7D381
:204F4000ADE7009AC9EB0B030AF101015019002BACBFF318331C491B2D4A04F08DFE054468
:204F6000554540D83F681FB3D8F80060A64207D8554505D2009A2C235355D8F800600135A7
:204F800001348AE7009A331B0AF101015019002BACBF5B440BF10003491B1D4A04F06CFEC0
:204FA0000544554504D2D8F80030994599D29CE75346BA461F46CDB954B9BAF1000F20D031
:204FC000D8F800301F44C8F8007003B0BDE8F08F019C822120460FF073FF20460D490F2263
:204FE00010F0AAF8E9E75346BA461F46019C00992A46204610F0A0F8204628210FF07EFF72
:20500000DBE74FF0FF33C8F8003003B0BDE8F08F9C7B01000880010070B502880546C82A09
:2050200015D0D82A0DD01AB100230380032070BD1F4B8521186805F061FEC8232B80012050
:2050400070BD88291BD0D8232B80012070BD852901D0012070BD174805F092FF044618B9C6
:20506000F1E72468002CEED0E369002BF9D0A1680029F6D004F10C0005F0C6FCF1E70D48C5
:2050800005F07EFF044618B9DDE72468002CDAD0A368002BF9D004F10C06304605F0D2FC1E
:2050A0000028F2D0E3699847304605F0B7FCECE73C250020282000202DE9F04F87B006ADC2
:2050C0000024384E45F8044D0291F4682946924699468046A0470546334805F051FF044681
:2050E000002834D0DDF814B009E006DD217ACB0603D51BF800102F2908D024683CB367683E
:20510000384611F0FDFB85420246EED13846594611F04EFC0028F0D103903269404690476E
:2051200010F0010F039B1CD1850728D5656935B3109B5246009340464B460299A847237A81
:205140005B0612D40123184607B0BDE8F08F73690298D6F8881098470023184607B0BDE813
:20516000F08F2569002DE3D1DEE7336E20464146029A98470123184607B0BDE8F08F4107CE
:2051800002D5A569002DD3D1020702D5E569002DCED102987269D6F88C1003939047039B75
:2051A000DBE700BF508001002C20002038B50A4B1C7804B138BD094D012209481A7005F068
:2051C000DBFEAB68074898476B6898472146BDE83840054805F0BEBDAE3B002050800100E8
:2051E0002C200020B9500000DC07002070B5044612486160214605F0C5FE94F90830002B9E
:2052000000DB70BD216ACB69002BFAD08B68002BF7D00B4D0B4805F0B5FE284605F0C6FD74
:205220000028EED0084E236A346803F10C009968356005F0E9FB3460E3E700BF2C20002011
:20524000DC070020282000203C250020004870472C20002010B50446436E9847034BE06EBC
:2052600019780022BDE8104005F048BD5B470020F0B5044600250523012785B080F8603029
:20528000A0F86870A0F89C5280F8385029464FF4067200F5956011F07FFADFF848C0DFF8D4
:2052A00048E004F22C7604F174024FF4007384F8B67484F8745221460092304604F2A622F8
:2052C000CDF808C0CDF80CE001930AF039F93046B4F8282704F5E36105B0BDE8F0400AF09E
:2052E00067B900BFF15300008D57000070B5044600F17403002503672946242204F22C76F4
:2053000080F86A5000F51E7011F046FA30460AF0B1F930460AF0BCF930462946342211F01C
:205320003BFA032384F8603070BD00BF026F00F174018A4207D0002380F87432521A00F201
:205340002C700AF079B9012380F87432704700BFF8B505461646D0F8A022006F05F51D73F6
:205360001C1AB71ABC4228BF3C46A4B21144224611F038F92A6FD5F8A03222441C44A64294
:205380002A67C5F8A04206D02846FFF7CFFFD5F8A002301AF8BD0020C5F8A002F8BD00BF74
:2053A00010B5044638B1016021B1084611F0A8FAA08010BD818010BD10B50446042100F5ED
:2053C000D862FFF747FF94F80E37B4F81217012B04BF002384F80E3741B904F595604FF4B3
:2053E000067211F0D9F9012384F8B63410BD00BF002B00F012812DE9F04F9A4691F8B034FC
:2054000085B016460D46002B40F0198195F8B134002B78D095F8B7344FF00009002B00F0F3
:205420008480B5F8B214D5F8AC2495F8B134B1F5007F23F00F0300F2F280013191424FF0F4
:2054400001074FF0000832D9302B00F0988095F8B904C9EB0A04C0F500739C4228BF1C4634
:205460002844224606EB090100F2BA4011F0BAF8D5F8AC2495F8B93422442344A144C5F838
:20548000AC2485F8B93424B100200130C0B28442FBD8B5F8B214D14501F1010101D38A4284
:2054A00069D395F8B134914223F00F03CCD8DBB2502B00F0338100F2DC80302B00F01D81BF
:2054C000402B00F00881202B40F0B28095F8BB342BB12846822105F2BB42FFF7BBFEE98ABC
:2054E000012385F8993205F118002B46C901964A05F074F90823002185F860300A4628469E
:20550000FFF7A8FE94E0D5F8AC3432780133BAF1010FC5F8AC3485F8B1242CD095F8B734D2
:205520004FF00109002B7FF47CAF06EB09071EE0D5F8AC2495F8B80417F8014B01320130B5
:20554000052AC5F8AC2404F07F0185F8B80400F2868095F8B634B5F8B2E4D80101FB03E177
:20556000230689B2A5F8B21485F8B6047DD5D14509F10109DCD3002005B0BDE8F08F95F88C
:20558000BF36002B7FF463AF95F8BE36B3B916F8093009F10101501C1B025145A5F8BA368A
:2055A000C5F8AC047ED2715C02320B43A5F8BA36C5F8AC2409F1020985F8BE76B5F8BE465E
:2055C000012C7FF444AFB5F8BC16B5F8BA36C9EB0A025B1A934228BF134668181FFA83FBBB
:2055E00006EB09015A4600F2C460019310F0FAFFB5F8BC26019BD5F8AC141A44B5F8BA06EA
:2056000092B259449042D944C5F8AC14A5F8BC2600F08A8085F80E7719E700207047302B90
:205620003FF40BAF524401318A42C5F8AC24A2D30123002085F8B03405B0BDE8F08F01F573
:2056400095604FF40672002111F0A6F8012385F8B63495F8B134002B7FF4DCAE53E728460D
:2056600080210022FFF7F6FD85E7012385F8B734DBE6702B52D04FD9902B15D0B02BD7D1BD
:2056800095F8BA1495F8BB34012243EA012385F89922A5F8B4342846032105F2B442FFF78D
:2056A000D9FDC5E78946D2E695F8BA1495F8BB34012243EA012395F8BC4485F89922A5F834
:2056C000B4342846022103AAADF80C308DF80E40FFF7C0FDACE795F8BA1495F8BB340122B0
:2056E00043EA012385F89922A5F8B4342846052105F2B442FFF7AEFD9AE795F8B91405F2A8
:20570000BA420023A5F80C17C5F80827A5F812372846FFF751FE8BE7602B89D128468421BB
:205720000022FFF797FD83E72B1885F8BF4683F8C486B5F8B234023B1B1A9BB2A5F8103793
:20574000A5F8123766E700BF4D57000090F838302BB90C4B024619780B4805F0CFBA10B519
:20576000022300F22C7480F86030204609F082FF204609F08DFF2046BDE8104000213422CD
:2057800011F00AB8AF3B0020EC07002010B582B00C468DF80720042A11D8DFE802F02F1223
:2057A00012120300B1F84E372BB9012201F1740381F874220B6704F1180005F037F802B0C0
:2057C00010BD154B22461978144805F097FA032384F8603004F1180005F044F820460121C9
:2057E0000DF10702FFF736FD2046FFF77FFD637D012BE4D12046FFF73BFDE0E70849012310
:20580000062284F86020097884F874322246034805F074FA02B010BDB63B0020EC07002008
:20582000B23B002008B505F0E1F91A4A1A4B1070187005F0DBF9194B187005F0D7F9184B21
:20584000187005F0D3F9174B187005F0CFF9164B187005F0CBF9154B187005F0C7F9144BBA
:20586000187005F0C3F9134B187005F0BFF9124A124B1070187005F0B9F9114B18701148B7
:2058800005F07AFB1048002105F064FA0F4B01221A7008BDBA3B0020B03B0020B23B0020D9
:2058A000B53B0020B73B0020B93B0020B33B0020AF3B00205B470020B63B0020B13B0020BB
:2058C000B43B002034200020EC070020B83B00202DE9F043044640F2A740238883B08342D0
:2058E0008DF80710154600F00682B3F5956F71D340F2C6418B4200F0A38140F21B8140F22F
:20590000D3418B4200F0C180B3F59C6F6ED1C04B9DF807101B788B4200F00081BD4B1B7860
:205920008B4240F25382BC4E3568B5F89C32B3F5267F00F0CD8741F27B8140F29D229342EB
:2059400000F0D58700F24E8740F29A22934200F0E587B3F5277F40F0698795F874323BB386
:205960002A6F05F51D739A4201F03081002111702A6F01322A672A6F95F886129A4200F0FD
:20598000AF8711702B6F01332B672846D5F89012B5F89422FFF7DCFC8146002801F00B8275
:2059A00040F2A223A5F89C3295F87432002BECD1336893F86030082B40F02281974B984AEA
:2059C00019781068002205F099F94FF49C63238001200EE040F282418B4200F0E78040F2D6
:2059E00099418B4208D0002B00F00A8100232380032003B0BDE8F083854B9DF807101B78BF
:205A00008B4200F08B80834B1B788B4240F2B481814E3768B7F89C32B3F5D17F00F00F87C0
:205A200041F2298140F2B312934200F03885B3F5DA7F81F0748040F2A712934200F0018574
:205A4000B3F5D47FC1F0DE8140F2A912934200F0C186B3F5D47F40F2008540F2AB129342CC
:205A600041F06C8097F87432002B00F054843846796CB7F84820FFF76BFC002800F01C8452
:205A800040F2AB13A7F89C32ECE7614B9DF807101B788B4242D05F4B1B788B4240F28881C7
:205AA0005D4E3768B7F89C32B3F5157F00F0018741F2AA8040F25722934200F0EB86B3F585
:205AC000167FC0F0D28740F25922934200F0758540F2622293421BD107F1040897F89932E7
:205AE000012B05D0404605F0A7F9002800F06985404605F0A1F94FF4067207F595600021A2
:205B000010F04AFE0122002387F8B62487F86A300023A7F89C329DF807106CE03E4B0A2149
:205B20001B680022022083F86010A3F89C2203B0BDE8F08340F2B9418B427FF457AF344B9E
:205B40009DF807101B788B42E8D0324B1B788B4240F22081304E3768B7F89C3240F2D22211
:205B6000934200F0218640F2D58740F2D322934200F00D8640F2DE22934211D197F8B03450
:205B8000002B00F0C0864FF4067207F59560002110F002FE0122002387F8B62487F8383051
:205BA00000239DF80710A7F89C321AE0184B9DF807101B788B4200F017831A4B1B788B42F1
:205BC00000F00A83184B1B788B4200F0A381174E33788B4200F0F481154B1B788B4200F07F
:205BE0000082144B1B788B4200F03B82124B1B788B4200F06E82114B1B788B4200F0A1824B
:205C000040F282430120238003B0BDE8F08300BFB63B0020B03B002030200020B43B0020A4
:205C20003C250020BA3B0020B23B0020B53B0020AF3B0020B73B0020B93B0020B33B002073
:205C4000AE4B9DF807101B788B423FF467AFAC4B1B788B4240F2C880AA4E3768B7F89C3211
:205C600040F21622934200F0068640F2B88740F21B22934229D0B3F5077F81F01780B3F5DD
:205C8000067F00F0E98540F21922934240F0038197F87432EBB107F51D733A6F97F88C12F8
:205CA0009A4201F07F8011703B6F01333B673846D7F88812B7F88C22FFF74AFB002800F080
:205CC000AD8040F21B23A7F89C3297F87432002BEDD1336893F86030082B40F0DF808A4B4F
:205CE0008A4A19781068002205F008F840F2C643012023807DE6814B9DF807101B788B4276
:205D00003FF40CAF7E4B1B788B4228D97D4E3768B7F89C3240F2E512934200F0C980B3F5A5
:205D2000F37FC0F0448600F00B85B3F5F87F40F0418697F87432002B00F009853B463768E3
:205D40000022A3F89C223846FFF7D0FA012130680DF10702FFF77EFA9DF807103CE76C4BD5
:205D60001B788B42D2D3694B664E186804F0C6FF3768B7F89C32CDE7654B1B788B42FFF4AA
:205D800047AE624B5F4E186804F0B8FF3768B7F89C3241E65E4B1B788B42FFF4DBAE5B4B1B
:205DA000584E186804F0AAFF3768B7F89C32D5E6574B1B788B42FFF473AE544B514E186875
:205DC00004F09CFF3768B7F89C326DE6504B1B788B42FFF4A8AD4D4B4A4E186804F08EFF51
:205DE0003568B5F89C32A2E5494B1B788B42FFF433AF464B434E186804F080FF3768B7F8D8
:205E00009C322DE73846FFF791FA4FF40773A7F89C3297F87432002B3FF45BAF3A6F07F535
:205E20001D739A4297F89812ECD011703B6F384601333B6707F10408FFF778FA40464FF44D
:205E4000A06104F0E5FF4FF4067207F59560002110F0A2FC40F225220123A7F89C2287F885
:205E6000B63497F89932012B05D0404604F0E4FF00283FF42EAF404604F0DEFF4FF4067236
:205E800007F59560002110F087FC0122002387F8B62487F86A300023A7F89C329DF8071079
:205EA000A4E63846FFF742FA40F2E513A7F89C3297F87432002B00F050843A6F07F51D73B8
:205EC0009A42EED0E02111703A6F01323A673A6F9A4200F02E84002313703B6F3846013300
:205EE0003B67FFF723FA381D4FF4807104F090FF4FF4F873A7F89C321BE700BFB63B0020F4
:205F0000B03B002030200020B43B00203C250020B13B002095F87432BC4EB5F8A422012B8E
:205F20003560A5F854277FF452AE2F460023A5F89C323B8A102287F87822002B00F0F88497
:205F40009A1CB7F8543002F10C01002B00F0ED849A1CB7F85C301144002B00F0D1849A1C60
:205F6000B7F84030114403B10233B7F848200B4402B10232002001461344C7F87C3287F8CD
:205F8000840207F5207E03F07F02DB0962F07F0000F0D6810EF8010097F884120131C9B298
:205FA000042987F88412EED9384681210022FFF751F9974E0023A7F89C329DF8071007E648
:205FC00095F86030914E092B35607FF405AE95F87432012B40F013810023A5F89C322F46B0
:205FE0006BE795F87432894E012B35607FF4F9AD95F86030082B7FF4F4AD2F460023A5F8D2
:206000009C323A6F07F51D739A4200F0C683C02111703A6F01323A673A6F9A4200F0B083E1
:206020004FF0000982F800903B6F384601333B674FF00108FFF77AF949464FF4067287F896
:20604000388007F5956010F0A7FB87F8B684381D4FF4A06104F0DCFE40F2DE23A7F89C3235
:206060008CE595F87432694E012B35607FF4BEAD95F86030082B7FF4B9AD2F460023A5F8C8
:206080009C3200210A46B7F88C328220053387F87802C7F87C3287F8841207F5207003F080
:2060A0007F01DB0961F07F0E00F0F78200F802E097F884220132D2B2042A87F88422EED955
:2060C000384681210022FFF7C5F80023A7F89C32E4E695F874324D4E012B35607FF48BAD37
:2060E00095F86030082B7FF486AD2F460023A5F89C3200210A46B7F88C32A2200433C7F811
:206100007C3287F8841287F8780207F5207E03F07F01DB0961F07F0000F0EC810EF802009D
:2061200097F884220132D2B2042A87F88422EED9384681210022FFF78DF80023A7F89C320C
:20614000E9E495F87432314E012B35607FF458AD95F86030082B7FF453AD0023A5F89C3236
:2061600095F8982295F89A12530043F03003DBB2012985F8783204BF43F0010385F87832E7
:20618000B5F88C12D5F894320B44002A40F0D3830233C5F87C3200210B46D5F87C2285F828
:2061A000841205F5207002F07F01D20961F07F0700F01A82C75495F884320133DBB2042BC1
:2061C00085F88432EFD9284681210022FFF742F80023A5F89C3213E50C4B28461D60FFF7A4
:2061E00047F89DF80710EDE4084B0A2285F8602028461D60FFF77AF89DF80710DDE405485A
:206200002A4604F07BFD9DF80710E5E430200020B53B0020EC0700203846FFF787F840F275
:206220009B13A7F89C3297F87432002B73D03A6F07F51D739A42EFD0032111703A6F01324F
:206240003A673A6F397D9A4200F0868311703A6F01323A67396FFA8A99424FEA122200F007
:20626000D9830A703A6F01323A673A6FB97D9A4200F0C18311703A6F01323A673A6F9A4259
:2062800000F0AA83002111703A6F01323A673A6F397C9A4200F0918311703B6F01333B6783
:2062A0003846F9683A8AFFF753F8002840F0C3823B7D5A0700F1A68097F91430002BC0F27C
:2062C000F3803B7D5B0640F149853A6F07F51D739A4200F0BD83002111703A6F01323A67D3
:2062E0003A6F97F85C109A4200F0A38311703B6F01333B673846B96DB7F85C20FFF728F822
:20630000002800F02B854FF4DF73A7F89C3297F87432002BEED1336893F860300A2B0CD0CD
:20632000BD4BBE4A19781068002204F0E7FC40F2994301202380FFF75CBB9DF8071046E496
:206340000EF8012097F884320133DBB2042B87F884323FF629AE3A6F07F51D739A4297F800
:20636000781200F0178311703B6F01333B67384607F5207197F88422FEF7EAFF98B140F26F
:206380009713A7F89C3297F87432002BEFD1C2E73846FEF7CBFF4FF4CC73A7F89C3297F862
:2063A0007432002BB7D03A6F07F51D739A42EFD0002111703A6F01323A673A6F9A4200F021
:2063C000DA82062313703B6F01333B67384694490622FEF7BDFF00283FF429AF4FF4CD734B
:2063E000A7F89C3297F87432002BEFD193E73846FEF79CFF4FF4D273A7F89C3297F874325E
:20640000002B88D03A6F07F51D739A42EFD0002111703A6F01323A673A6F97F840109A42A6
:2064200000F06A8411703B6F01333B673846F96BB7F84020FEF78CFFA0B140F2A713A7F830
:206440009C3297F87432002BF0D164E73846FEF76DFF4FF4D473A7F89C3297F87432002BCC
:206460003FF459AF3A6F07F51D739A42EED0002111703A6F01323A673A6F97F848109A4287
:2064800000F0A18111703B6F01333B67FFF7EFBA3846FEF74BFF40F2B313A7F89C3297F899
:2064A0007432002B3FF437AF3A6F07F51D739A42EED0002111703A6F01323A673A6F97F8CC
:2064C00054109A4200F0738311703B6F01333B673846396DB7F85420FEF73AFF00283FF4C5
:2064E000F0AE40F2B713A7F89C3297F87432002BEED110E70EF8021097F884320133DBB261
:20650000042B87F884323FF613AE3A6F07F51D739A4297F8781200F0C28211703B6F013364
:206520003B6707E040F25123A7F89C3297F87432002B46D0384607F5207197F88422FEF714
:2065400007FF0028EED13A6F07F51D739A4200F09982002111703A6F01323A673A6F97F8DB
:2065600086129A4200F09E8111703A6F01323A67396FB7F88C2299424FEA122200F0E683F4
:206580000A703A6F01323A673A6F97F88C129A4200F0798111703B6F01333B673846D7F81A
:2065A0008812B7F88C22FEF7D3FE8146002800F0B38340F25923A7F89C3297F87432002B8E
:2065C000ECD1336893F86030082B7FF4A4AA124B124A19781068002204F090FB40F2D343A9
:2065E00001202380FFF705BAC15495F884320133DBB2042B85F884323FF6E5AD2A6F05F54D
:206600001D739A4295F8781200F0688211702B6F01332B670FE000BFB43B00203C250020FE
:206620008481010040F29523A5F89C3295F87432002B3FF4BDA9284605F5207195F88422DC
:20664000FEF786FE0028EDD1296FB5F88C2205F51D7399424FEA122200F09C830A702A6FF4
:2066600001322A672A6F95F88C129A4200F0298111702B6F01332B672846D5F88812B5F8B9
:206680008C22FEF765FE002840F0448195F89832002B7FF465A9FFF778B9815497F8843293
:2066A0000133DBB2042B87F884323FF609AD3A6F07F51D739A4297F8781200F0FD811170B1
:2066C0003B6F01333B6708E040F21323A7F89C3297F87432002B3FF4FCAA384607F5207139
:2066E00097F88422FEF734FE0028EDD13A6F07F51D739A4200F00082002111703A6F013257
:206700003A673A6F97F886129A4200F0AD8011703A6F01323A67396FB7F88C2299424FEAF8
:20672000122200F092800A703A6F01323A67FFF7B4BA3846FEF7FAFD4FF4F373A7F89C3248
:2067400097F874324BB107F51D73FFF7C0BB381D04F072FB00287FF4F1AA376897F8603061
:206760000A2B3FF4F0AADB4BDB4A19781068002204F0C4FA40F2A74301202380FFF739B927
:206780003846FEF7D3FD40F2D323A7F89C3297F8743273B107F51D733EE43846FEF7C6FDE4
:2067A00040F2D223A7F89C3297F87432002B7FF428AC336893F86030082B00F0C0809DF8F0
:2067C0000710FFF70EBA3846FEF7B0FD40F2A913A7F89C3297F87432002B3FF49CAD07F591
:2067E0001D7349E640F2A22293423FF4DDA840F2B32293421AD12F1D95F89932012B05D0EB
:20680000384604F019FB00283FF4D2A8384604F013FB4FF4067205F5956000210FF0BCFF18
:206820000122002385F8B62485F86A300023A5F89C32FFF7E5B94FF4D173A7F89C3297F8FF
:206840007432002B7FF42CAD65E53846FEF76EFD4FF40673A7F89C3297F87432002B3FF437
:2068600038AA07F51D7356E73846FEF75FFD40F21623A7F89C3297F87432002B3FF429AA60
:2068800007F51D733DE73846FEF750FD40F25723A7F89C3297F87432002B3FF492AE07F5A0
:2068A0001D7371E63846FEF741FD4FF41573A7F89C3297F87432002B3FF483AE07F51D73B8
:2068C0004CE62846FEF732FD4FF42673A5F89C3295F87432002B3FF46BA805F51D73C1E6D8
:2068E0002846FEF723FD40F29D23A5F89C3295F87432002B3FF45CA805F51D73FFF73BB8B0
:206900001A46FFF72DBB381D04F096FA00287FF43AA94EE740F29A23A5F89C3295F8743220
